:020000040800F2
:10000000881400200101000859500008ED3C000848
:10001000394A00080D290008976600080000000012
:10002000000000000000000000000000B95A0008B5
:10003000D12A00080000000065530008A55B0008F5
:100040001B0100081B0100081B0100081B01000820
:100050001B0100081B0100081B0100081B01000810
:100060001B0100081B0100081B0100081B01000800
:100070001B0100081B0100081B0100081B010008F0
:100080001B0100081B0100081B0100081B010008E0
:100090001B0100081B0100081B0100081B010008D0
:1000A0001B0100081B0100081B0100081B010008C0
:1000B0001B0100081B0100081B0100081B010008B0
:1000C0001B0100081B0100081B0100081B010008A0
:1000D0001B0100088D6200081563000865640008B4
:1000E0001B0100081B0100081B010008DFF80CD0F1
:1000F00000F04AFC00480047AD7700088814002053
:100100000648804706480047FEE7FEE7FEE7FEE7B1
:10011000FEE7FEE7FEE7FEE7FEE7FEE7F55B000829
:10012000ED00000840EA01039B0703D009E008C97D
:10013000121F08C0042AFAD203E011F8013B00F8AC
:10014000013B521EF9D27047D2B201E000F8012BF8
:10015000491EFBD270470022F6E710B513460A4647
:1001600004461946FFF7F0FF204610BDF0B480EAC0
:100170000102D40F4200B2EB410F02D20246084600
:1001800011464A0042D0C30DDDB2C1F3C752AD1AC9
:10019000202D35DAC1F3160141F4000204B15242B8
:1001A000C5F1200602FA06F12A411044B3EBD05FF4
:1001B00023D0C4B1012DA0EBC35009DCF0BC4FF03B
:1001C000004202EAC352DBB200F5000000F0BEBA02
:1001D000400000F1807000EBC350A0F1807040EA55
:1001E000D170490009E0490841EAC071A0EBC35051
:1001F00000F50000400800EBC350F0BC00F09DBAD1
:100200006142012202EB4101001BF6E7F0BC70479E
:1002100081F00041AAE780F00040A7E780EA0102F0
:1002200010B502F00043400022D04A001FD0010E5A
:1002300001EB1261C0F35600C2F3560240F4000015
:1002400042F40002A0FB022000047F39140400D015
:10025000401C50EA124001D44000491EC2B20C06B4
:1002600004EBD010401C4008802A02D003E000209C
:1002700010BD20F00100002900DA0020184310BD55
:1002800030B480EA010202F0004530F0004221F073
:10029000004013D090B1C30DD40DC2F31601C0F3CA
:1002A0001600E41A41F4000140F400027D3491424A
:1002B00001D3641C00E04900002C02DA30BC0020AD
:1002C00070474FF400000023914201D3891A034381
:1002D00040084FEA4101F7D151B1914202D14FF0AC
:1002E000004105E002D24FF0010101E06FF0010191
:1002F00003EBC450284430BC00F01FBA2DE9FE4F78
:10030000804681EA0300C00F0C46009021F00041B6
:1003100023F00045B8EB0200A94105D24046214632
:1003200090461C460B46024623F00040104347D03F
:10033000270DC7F30A00C3F30A510290401A019037
:1003400040286BDAC3F3130040F4801B00989246F8
:1003500020B10023D2EB030A63EB0B0B0198594643
:10036000C0F14002504600F0B7F906460D4650462F
:100370005946019A00F0CFF910EB080061410024C2
:1003800087EA115284EAE7731A4340D0009A62B3B5
:10039000019A012A4FEA075215DC001B61EB0201AA
:1003A0004FF0004202EA0752CDE90042001C41F53D
:1003B000801132462B4600F012FA03B0BDE8F08FF0
:1003C00040462146F9E7001B61EB0201001C41F5A4
:1003D000801300185B412018A2F5001747EB0301BA
:1003E00040EAD570B6196D4111E06D084FEA360646
:1003F00045EAC0754FEA0752001B61EB0201001C81
:1004000041F5801149084FEA300000195141324648
:100410002B4603B0BDE8F04F00F0D2B9009801229E
:1004200040000023D0EB020263EBE073009821460A
:100430004FEAE074B8EB000061EB0401E9E783F0F8
:1004400000435BE781F0004158E72DE9FE4F81EA68
:10045000030404F0004421F0004100944FF0000B2D
:1004600023F0004350EA01045ED052EA03045BD05B
:10047000C3F30A54C1F30A552C44A4F2F334019493
:10048000A0FB0254C1F3130141F48011C3F3130321
:1004900043F4801301FB024400FB034E840A970AD5
:1004A00044EA815447EA8357A4FB076802958D0A02
:1004B00005FB07854FEA932C04FB0C542705029D8E
:1004C0004FEA065847EA1637B5EB08056EEB070CFE
:1004D000870E920E47EA811742EA8312A7FB0201B8
:1004E000B6EB0B0164EB00042B0D43EA0C335E18F2
:1004F00044EB1C50DA465146E7FB0201C5F31304F6
:100500004FEA0B3343EA14534FEA0432019C43EAA7
:100510000603A4F10C040294009CCDE900B400F0A1
:100520005EF903B0BDE8F08F00200146F9E7C10F86
:1005300080EAE0700844CA079623002100F006B95B
:1005400096230022114600F001B90EB5C10F80EAD2
:10055000E0700844CA07002140F233438DE80E00E2
:100560000A460B4600F03BF903B000BD00F0004224
:1005700020F00040C10DC0F3160040F400007F29B8
:1005800001DA00207047962903DCC1F19601C840CA
:1005900001E096398840002AF4D04042704720F0AC
:1005A0000040C10DC0F3160040F400007F2901DABD
:1005B00000207047962903DCC1F19601C8407047BE
:1005C00096398840704700F0004230F000400AD071
:1005D000C10D01F56071C0F3160042EA0151C20875
:1005E00040071143704700200146704730B5041E94
:1005F00071F1000404DB4FF00044404264EB010160
:10060000141E73F1000405DB1C464FF000435242F8
:1006100063EB04038B4208BF824230BD30B5041E39
:1006200071F1000404DB4FF00044404264EB01012F
:10063000141E73F1000405DB1C464FF000435242C8
:1006400063EB0403994208BF904230BD01F00043C0
:1006500030B421F0004150EA010206D00A0DA2F5A3
:100660006072C1F31301002A02DC30BC0020704725
:10067000440F44EAC104C100E01830BC00EBC25092
:1006800000F05BB8002801DBC0F10040002901DB6D
:10069000C1F1004181427047002801DBC0F10040F8
:1006A000002901DBC1F100418842704730B50B469B
:1006B000014600202022012409E021FA02F59D4292
:1006C00005D303FA02F5491B04FA02F52844151E66
:1006D000A2F10102F1DC30BD202A04DB203A00FA4D
:1006E00002F1002070479140C2F1200320FA03F389
:1006F000194390407047202A04DB203A21FA02F087
:100700000021704721FA02F3D040C2F1200291404B
:10071000084319467047202A06DBCB17203A41FAD6
:1007200002F043EAE07306E041FA02F3D040C2F17E
:10073000200291400843194670470029A8BF70471E
:10074000401C490008BF20F00100704710B4B0FA07
:1007500080FC00FA0CF050EA010404BF10BC7047A2
:1007600049B1CCF1200421FA04F411FA0CF118BFBC
:10077000012121430843A3EB0C01CB1D4FEA00618B
:100780004FEA102042BF002010BC704700EBC3505E
:1007900010440029A4BF10BC7047401C490008BF8A
:1007A00020F0010010BC7047420005D0C0F3C752D2
:1007B0005242914201DC0020704700EBC15070476B
:1007C00010B5141E73F1000408DA401C41F1000159
:1007D00092185B411A4301D120F0010010BD2DE9B0
:1007E000F04D92469B4611B1B1FA81F202E0B0FAA7
:1007F00080F220329046FFF76FFF04460F4640EA32
:100800000A0041EA0B0153465A46084313D01146E9
:1008100053EA010019D0C8F140025046FFF76BFFC0
:1008200005460E46504659464246FFF755FF0843D7
:1008300005D0012004E020463946BDE8F08D0020B7
:10084000054346EAE0762C4337430A986305E40AF9
:10085000A0EB08000022FD0A44EA47540A3002D502
:1008600000200146E9E7010510196941DDE9084565
:1008700000196941BDE8F04DA2E72DE9F04D81EA8C
:10088000030404F0004B21F0004514464FF0000A29
:1008900023F0004150EA050220D054EA01021DD0A5
:1008A000C5F30A570246C5F31303C1F31300C1F39E
:1008B0000A5640F4801543F48013A7EB0608101B7A
:1008C000D64608F2FD3873EB050002D308F10108A3
:1008D00001E092185B41B8F1000F03DA00200146F5
:1008E000BDE8F08D00204FF48011064684460EE0EE
:1008F000171B73EB050705D3121B63EB05030643B8
:100900004CEA010C49084FEA300092185B4150EA6A
:100910000107EDD152EA030012D082EA040083EA13
:100920000501084305D0101BAB4106D2012200236C
:1009300006E000224FF0004302E06FF00102531086
:100940001AEB06004CEB085110EB0A0041EB0B01CF
:10095000BDE8F04DFFF734BF70B521F0004303430D
:100960000CD0C1F30A550024D5EB040564EB040355
:10097000D617AD1AB34102DB0020014670BD201826
:1009800041EB025170BD0000064C074D06E0E068E7
:1009900040F0010394E8070098471034AC42F6D3C6
:1009A000FFF7A8FB90830008B08300082DE9F04D05
:1009B00000231A461B1A8A4103DB00200146BDE8CA
:1009C000F08DC1F30A52C1F3130141F480154FF0C9
:1009D000000BD10702D100186D41521E00270446BA
:1009E00040F2FF11384601EB620A3E46804602465D
:1009F00000204FF48011FFF77EFEC2197141BB1831
:100A000046EB0100B4EB030C75EB000C04D3E41AC5
:100A100065EB000517460E46241908F101006D41EB
:100A200080463428E3DDF91946EB0600091BA8418E
:100A300003D24FF0FF32134601E0002213461BEBB6
:100A4000070046EB0A51BDE8F04DFFF7B9BE0EB501
:100A500040F2334102910021CDE900110A460B46D4
:100A6000FFF7BDFE03B000BD70B5C1F30A5201F03F
:100A700000450024C1F3130140F2FF3341F480111B
:100A80009A4201DA002070BD40F233439A42A2F24A
:100A9000334203DC5242FFF72EFE00E090402C432D
:100AA000F1D0404270BD70B58C1810F8015B15F0A4
:100AB000070301D110F8013B2A1106D110F8012BD0
:100AC00003E010F8016B01F8016B5B1EF9D12B07F5
:100AD00005D40023521E0DD401F8013BFAE710F8AB
:100AE000013BCB1A921C03E013F8015B01F8015B98
:100AF000521EF9D5A142D8D3002070BD08B50121FE
:100B0000084604F063FE01214FF4027004F07EFEFB
:100B10000120ADF8000000208DF80300694602486E
:100B200002F026FC08BD0000000C014010B5FFF7E4
:100B3000E5FF00F001F810BD00B591B0334801F0B9
:100B400003FF3348069033480790002008900220A6
:100B5000099000200A9080200B9040000C908000AB
:100B60000D9020200E9000020F900020109006A9FA
:100B7000264801F08FFF0121244801F0D8FE002013
:100B8000019001208DF808008DF809004FF46020D5
:100B900003900020049001208DF8140001A91C4846
:100BA0004C3800F063F84FF4004004F003FE0523D6
:100BB0000122082116484C3800F080F80121144821
:100BC0004C3800F034F8012111484C3800F024F87A
:100BD0000F484C3800F0CEF800BF0D484C3800F0FC
:100BE0003BF80028F9D10A484C3800F0D3F800BF90
:100BF00007484C3800F026F80028F9D101210448B4
:100C00004C3800F0BCF811B000BD000008000240F4
:100C10004C2401405800002021B1826842F00102BA
:100C2000826003E0826822F001028260704721B195
:100C3000826842F48072826003E0826822F48072EB
:100C400082607047014600208A6802F004020AB1FF
:100C5000012000E000207047014600208A6802F071
:100C600008020AB1012000E00020704730B50246BA
:100C70000020002350680F4C20400D790C6844EA96
:100C800005242043506090680B4C2040D1E9025469
:100C90002C434D7944EA450420439060D06A20F407
:100CA00070000C7C641EE4B2234340EA0350D0621F
:100CB00030BD0000FFFEF0FFFDF7F1FFF0B5044688
:100CC0000D4600200021092D11DDE068A5F10A067E
:100CD00006EB4607072606FA07F18843A5F10A0640
:100CE00006EB460603FA06F10843E0600CE02069D3
:100CF00005EB4507072606FA07F1884305EB45068D
:100D000003FA06F108432061072A0FDA606B561ECA
:100D100006EB86071F2606FA07F18843561E06EBE8
:100D2000860605FA06F10843606322E00D2A0FDA11
:100D3000206BD61F06EB86071F2606FA07F18843AD
:100D4000D61F06EB860605FA06F10843206310E07D
:100D5000E06AA2F10D0606EB86071F2606FA07F1E8
:100D60008843A2F10D0606EB860605FA06F1084354
:100D7000E062F0BD816841F008018160704721B1F7
:100D8000826842F4A002826003E0826822F4A0023A
:100D900082607047816841F0040181607047000003
:100DA00010B503F0E5FC06F02FFE03F0EDFD04F0B6
:100DB000FFF8FFF7BBFE4FF4964001F0BBF94FF48C
:100DC000E13005F0FFF9184805F0E6FA04F026FADC
:100DD00000201649087007F0C9F8012818DB15E053
:100DE0004FF07E512046FFF7C1F904464FF40070E2
:100DF0000F4908600F492046FFF74EFC06D8002037
:100E00000D49087001200D49087000E0E8E705E091
:100E100001200949087000200849087004F01AFFF1
:100E200004F088FF10BD000020A10700C0010020D1
:100E3000100C01400050C347300000208A00002001
:100E400000B58FB0FE48007838B10020FC4908702A
:100E50000721FC4800F09AFCF8E2FB488079002862
:100E60007DD0FA480078401CF849087008460078A0
:100E7000012806D002287ED0032872D0042871D120
:100E800063E1F3488069F3490490FFF7C7F90590DF
:100E9000FFF76CFB00B20E90ED484069ED490490FD
:100EA000FFF7BCF90590FFF761FB00B20D90E84831
:100EB0000069E8490490FFF7B1F90590FFF756FB88
:100EC00000B20C90E4488069E2490490FFF7A6F96B
:100ED0000590FFF74BFB00B20B90DF484069DD49FE
:100EE0000490FFF79BF90590FFF740FB00B20A90D2
:100EF000D9480069D7490490FFF790F90590FFF7AA
:100F000035FB00B20990D5488069D2490490FFF7BB
:100F100085F90590FFF72AFB00B20890CF48406999
:100F2000CC490490FFF77AF90590FFF71FFB00B258
:100F30000790CA480069C7490490FFF76FF9059008
:100F4000FFF714FB00B20690DDE90B23DDE90D107D
:100F5000CDE90223CDE90410DDE9090103E091E1C7
:100F600009E07DE06BE1CDE90001012006A90EC991
:100F700000F014FC63E1BA488069B6490490FFF7B9
:100F80004DF90590FFF7F2FA00B20E90B4484069AF
:100F9000B0490490FFF742F90590FFF7E7FA00B275
:100FA0000D90AF480069AB490490FFF737F9059001
:100FB000FFF7DCFA00B20C90AA488069A5490490BA
:100FC000FFF72CF90590FFF7D1FA00B20B90A54876
:100FD0004069A0490490FFF721F90590FFF7C6FA90
:100FE00000B20A909F4800699A490490FFF716F9E9
:100FF0000590FFF7BBFA00B209909B4880699549BC
:101000000490FFF70BF90590FFF7B0FA00B20890D3
:10101000954840698F490490FFF700F90590FFF764
:10102000A5FA00B20790904800698A490490FFF73A
:10103000F5F80590FFF79AFA00B20690DDE90B2368
:10104000DDE90D10CDE90223CDE90410DDE9090148
:10105000CDE90001022006A90EC900F09FFBEEE0D9
:10106000824880697B490490FFF7D8F80590FFF724
:101070007DFA00B20E907D48406976490490FFF7F2
:10108000CDF80590FFF772FA00B20D90774800692D
:1010900070490490FFF7C2F80590FFF767FA00B2B5
:1010A0000C90734880696B490490FFF7B7F805907E
:1010B000FFF75CFA00B20B906D48406965490490F7
:1010C000FFF7ACF80590FFF751FA00B20A906848B4
:1010D000006960490490FFF7A1F80590FFF746FA10
:1010E00000B20990634880695A490490FFF796F866
:1010F0000590FFF73BFA00B208905E4840695549F9
:101100000490FFF78BF80590FFF730FA00B20790D4
:10111000584800694F490490FFF780F80590FFF7A1
:1011200025FA00B20690DDE90B23DDE90D10CDE9CB
:101130000223CDE90410DDE90901CDE90001032016
:1011400006A90EC900F02AFB79E04B4880694149A5
:101150000490FFF763F80590FFF708FA00B20E90CD
:10116000454840693B490490FFF758F80590FFF760
:10117000FDF900B20D904048006936490490FFF730
:101180004DF80590FFF7F2F900B20C903B488069EA
:1011900030490490FFF742F80590FFF7E7F900B2F5
:1011A0000B90364840692B490490FFF737F80590BB
:1011B000FFF7DCF900B20A90304800692549049035
:1011C000FFF72CF80590FFF7D1F900B209902C48F1
:1011D000806920490490FFF721F80590FFF7C6F9D0
:1011E00000B20890264840691A490490FFF716F8A3
:1011F0000590FFF7BBF900B2079021480069154937
:101200000490FFF70BF80590FFF7B0F900B20690D5
:10121000DDE90B23DDE90D10CDE90223CDE9041052
:10122000DDE90901CDE90001042006A90EC900F09D
:10123000B5FA0020054908700349887100BF05E12F
:101240005E0200204A1000203C1000205C020020BA
:101250006404002000007A44E403002064030020BA
:10126000E4050020E4040020640500206408002058
:10127000E406002064060020E4070020E4080020C3
:10128000640700207248807818B100207049887087
:10129000DCE070480078401C6E4908700846007811
:1012A000072824D2DFE800F0D10424698CA5B4001B
:1012B0006948C0690B90FFF759F90E90674880683C
:1012C00080F000400D906548006880F000400C9070
:1012D0006348007862494968C9B2CDE900105F48A7
:1012E00040680B9001460CA80DC800F063FDACE00F
:1012F0005948C0690890FFF739F900B20E90594873
:10130000806C0890FFF732F900B20D905548C06C20
:101310000890FFF72BF900B20C9053480068089032
:10132000FFF724F900B20B90504800680890FFF7CF
:101330001DF900B20A904E4800680890FFF716F9B0
:1013400000B20990DDE90B23DDE90D10CDE90123A1
:10135000CDE903100A9800904648B0F904000890BF
:101360004448B0F9020007904248B0F900000690E6
:1013700007A90EC900F000FC67E03F48408A3F49DA
:101380000B783D49C9893C4A9289CDE90313029201
:1013900005903948408938490989CDE90010364817
:1013A00040880E90344800880D903348C0880C90D7
:1013B000314880880B900CA90EC900F02BFB44E04B
:1013C0002F48B0F900000A2190FBF1F080B20E9096
:1013D0002C4800882C490988CDE900102648008A4D
:1013E0000D90264803780122DDE90D1000F098FAEF
:1013F0002BE0264840680D90FFF7B8F80E9024487F
:10140000008880B201460D900E9800F083FC1CE02D
:101410001E4840680B90FFF7C2F880B20E9011484A
:10142000C06C0B90FFF7BBF880B20D900D48806C3C
:101430000B90FFF7B4F880B20C90DDE90D1200F0CC
:101440005DFD00200349087000BF00BF0FB000BD64
:101450003C1000205C020020A40D0020240300208A
:1014600048030020C80D0020E40600206407002087
:10147000E407002018030020300300208B00002028
:101480005C000020BE010020BC01002054030020AD
:101490000C0200202DE9F04104460D4600260027ED
:1014A00000BF04E0E05D3044C6B2781CC7B2681EDD
:1014B000B842F7DC601910F8010CB04201D0BDE869
:1014C000F0812078AA2802D16078AF2800D0F6E712
:1014D000A078012800D18EE0A07802281BD12079C5
:1014E00001280CD14548007820F0400040304349A5
:1014F0000870012042498871002042490870207913
:10150000A02802D101203E4988702079A12872D1FB
:1015100006F07AFA6FE0A078032803D101203A4957
:10152000487068E0A078102810D11222211D374899
:10153000FEF7F8FD3148007820F00100401C2F49EB
:101540000870A078314600F0DFF854E0A078112848
:1015500010D11222211D2E48FEF7E4FD2748007805
:1015600020F00200801C25490870A078314600F068
:10157000CBF840E0A078122810D11222211D254876
:10158000FEF7D0FD1D48007820F00400001D1B4927
:101590000870A078314600F0B7F82CE0A078132846
:1015A00010D11222211D1C48FEF7BCFD1348007803
:1015B00020F00800083011490870A078314600F08A
:1015C000A3F818E0A078142804D1A078314600F0E0
:1015D0009BF810E0A078152804D1A078314600F0DF
:1015E00093F808E0A078F12805D12079617941EAE3
:1015F00000200A49088000BF61E70000AA0100201E
:101600003C1000205C020020A4010020940E002069
:10161000A60E0020B80E0020CA0E0020BE01002039
:1016200010B504463448007838B9AA2C05D10120F9
:1016300031490870314804705DE02F480078012876
:1016400007D1AF2C05D102202B4908702B484470DC
:1016500051E029480078022807D1F12C05DA03204F
:10166000254908702548847045E023480078032800
:101670000CD1322C0ADA04201F4908701F48C470AC
:101680001F48047000201F49087034E01A48007891
:10169000042819D11A480078002815DD1848007868
:1016A000401E174908701748007816490978491CE8
:1016B000144A1170001D11490C5411480078D0B91A
:1016C00005200D49087016E00B48007805280FD159
:1016D0000020094908700B480078001D07490C5488
:1016E00008480078401DC1B20448FFF7D3FE02E06D
:1016F00000200149087010BDB7010020DC0F002058
:10170000B5010020B60100202DE9F04105460F4645
:1017100000260024AA201A4908701A49087018499E
:10172000487018494870EF2015498870154988702D
:1017300002201349C8701349C87068B21049087173
:101740001049087178B20E4948710E49487100BFBE
:1017500005E00B48005D3044C6B2601CC4B2062CE4
:10176000F7DB70B206498871064988710120064985
:1017700008700721024804F0B1FEBDE8F0810000C6
:10178000AB0100204A1000205E02002070B5044624
:101790000D462946204600F0B9FC70BD2DE9F84FF2
:1017A00006460F4690469946DDF828B00024A2462A
:1017B000AA222146641C594842542146641C4254C2
:1017C00006F10F00C2B22146641C54484254002264
:1017D0002146641C425400979DF801202146641C58
:1017E00042549DF800202146641C4254CDF80080EC
:1017F0009DF801202146641C42549DF8002020469B
:10180000611CCCB245490A54CDF800909DF80120E6
:101810002046611CCCB241490A549DF80020204664
:10182000611CCCB23D490A54CDF800B09DF80120AE
:101830002046611CCCB239490A549DF8002020464C
:10184000611CCCB235490A540B9800909DF80120D8
:101850002046611CCCB231490A549DF80020204634
:10186000611CCCB22D490A540C9800909DF80120BF
:101870002046611CCCB229490A549DF8002020461C
:10188000611CCCB225490A540D9800909DF80120A6
:101890002046611CCCB221490A549DF80020204604
:1018A000611CCCB21D490A540E9800909DF801208D
:1018B0002046611CCCB219490A549DF800202046EC
:1018C000611CCCB215490A540F9800909DF8012074
:1018D0002146601CC4B2114842549DF800202046A5
:1018E000611CCCB20D490A54201FC870002506E0C7
:1018F0000A48405D504400F0FF0A681CC5B2A5428A
:10190000F6DB2046611CCCB2044901F800A0214658
:101910000248FFF73BFFBDE8F88F00004A100020A7
:101920002DE9F84F06460F4690469946DDF828B057
:101930000024A246AA222146641C3548425421466E
:10194000641C425405222146641C42540022214654
:10195000641C425400969DF801202146641C4254A8
:101960009DF800202146641C425400979DF80120F8
:101970002146641C42549DF800202046611CCCB2D4
:1019800023490A542046611CCCB2214901F8008049
:101990002046611CCCB21E4901F80090CDF800B081
:1019A0009DF801202046611CCCB219490A549DF8CB
:1019B00000202046611CCCB215490A540B980090B7
:1019C0009DF801202046611CCCB211490A549DF8B3
:1019D00000202046611CCCB20D490A54201FC8705B
:1019E000002506E00A48405D504400F0FF0A681CEC
:1019F000C5B2A542F6DB2046611CCCB2044901F811
:101A000000A021460248FFF7C1FEBDE8F88F0000A4
:101A10004A1000207FB500240026AA222146641C1B
:101A2000544842542146641C425403222146641CFB
:101A3000425400222146641C42549DF80120214654
:101A4000641C42549DF800202146641C42549DF8B9
:101A500005202146641C42549DF804202046611C48
:101A6000CCB244490A549DF809202146601CC4B2F6
:101A7000404842549DF808202046611CCCB23D49A4
:101A80000A549DF80D202046611CCCB239490A54F5
:101A90009DF80C202046611CCCB236490A549DF8B2
:101AA00021202046611CCCB232490A549DF82020E6
:101AB0002046611CCCB22F490A549DF825202146AE
:101AC000601CC4B22B4842549DF824202046611C5F
:101AD000CCB228490A549DF829202046611CCCB27A
:101AE00024490A549DF828202146601CC4B221488C
:101AF00042549DF82D202046611CCCB21D490A5449
:101B00009DF82C202046611CCCB21A490A549DF83D
:101B100031202046611CCCB216490A549DF8302071
:101B20002046611CCCB213490A549DF8352020464A
:101B3000611CCCB20F490A549DF834202046611C28
:101B4000CCB20C490A54201FC870002505E0094892
:101B5000405D3044C6B2681CC5B2A542F7DB2046E2
:101B6000611CCCB203490E5421460248FFF70EFE19
:101B70007FBD00004A1000202DE9F84F06460F46B1
:101B800090469946DDF828B00024A246AA222146B4
:101B9000641C5F4842542146641C42540222214680
:101BA000641C425400222146641C425400969DF855
:101BB00001202146641C42549DF800202146641CEB
:101BC000425400979DF801202146641C42549DF820
:101BD00000202046611CCCB24D490A54CDF800804B
:101BE0009DF801202046611CCCB249490A549DF859
:101BF00000202046611CCCB245490A54CDF8009023
:101C00009DF801202046611CCCB241490A549DF840
:101C100000202046611CCCB23D490A54CDF800B0EA
:101C20009DF801202046611CCCB239490A549DF828
:101C300000202046611CCCB235490A540B98009014
:101C40009DF801202046611CCCB231490A549DF810
:101C500000202046611CCCB22D490A540C980090FB
:101C60009DF801202046611CCCB229490A549DF8F8
:101C700000202046611CCCB225490A540D980090E2
:101C80009DF801202046611CCCB221490A549DF8E0
:101C900000202046611CCCB21D490A540E980090C9
:101CA0009DF801202046611CCCB219490A549DF8C8
:101CB00000202046611CCCB215490A540020009037
:101CC0009DF801202046611CCCB211490A549DF8B0
:101CD00000202046611CCCB20D490A54201FC87058
:101CE000002506E00A48405D504400F0FF0A681CE9
:101CF000C5B2A542F6DB2046611CCCB2044901F80E
:101D000000A021460248FFF741FDBDE8F88F000022
:101D10004A10002073B500240026AA222146641C24
:101D2000234842542146641C425407222146641C25
:101D3000425400222146641C42549DF8032021464F
:101D4000641C42549DF802202146641C42549DF8B4
:101D500001202146641C42549DF800202046611C4D
:101D6000CCB213490A549DF805202046611CCCB220
:101D70000F490A549DF804202046611CCCB20C493E
:101D80000A54201FC870002505E00948405D304412
:101D9000C6B2681CC5B2A542F7DB2046611CCCB2B6
:101DA00003490E5421460248FFF7F0FC7CBD0000B9
:101DB0004A1000202DE9FE4F82460E4617469846EF
:101DC000DDF830B00024CDF80480A146AA222146D7
:101DD000641C484842542146641C42540122214656
:101DE000641C425400222146641C4254424950461D
:101DF000FEF714FA0090FEF7B9FB00B202909DF8CE
:101E000009202146641C3B4842549DF80820214685
:101E1000641C425438493046FEF700FA0090FEF741
:101E2000A5FB00B202909DF809202146641C3148B0
:101E300042549DF808202146601CC4B22D484254EB
:101E40002D493846FEF7EAF90090FEF78FFB00B205
:101E500002909DF809202046611CCCB225490A5405
:101E60009DF808202046611CCCB222490A549DF8F6
:101E700007202046611CCCB21E490A549DF806205A
:101E80002046611CCCB21B490A549DF8052020460F
:101E9000611CCCB217490A549DF804202146601CED
:101EA000C4B2144842542046611CCCB2114901F816
:101EB00000B02146621CD4B20E4A0D985054201F27
:101EC0001146C870002506E00A48405D484400F00D
:101ED000FF09681CC5B2A542F6DB2046611CCCB2E6
:101EE000044901F8009021460248FFF74FFCBDE885
:101EF000FE8F00004A1000200000C8422DE9F84380
:101F000006460F4690460024A146AA222146641C9C
:101F1000264842542146641C42540B222146641C2C
:101F2000425400222146641C425400969DF8012030
:101F30002146641C42549DF800202146641C4254F2
:101F400000979DF801202146641C42549DF8002012
:101F50002046611CCCB215490A54CDF800809DF88A
:101F600001202046611CCCB210490A549DF8002083
:101F70002046611CCCB20D490A54201FC8700025B0
:101F800006E00A48405D484400F0FF09681CC5B2FD
:101F9000A542F6DB2046611CCCB2044901F8009052
:101FA00021460248FFF7F2FBBDE8F8834A10002003
:101FB00070B5072003F0E2F8044604F0400098B141
:101FC000602003F0DBF80546212D08DA2A460E4989
:101FD000612003F0B1F800200C49088003E0FF21E4
:101FE000E22003F003F900BF04F0100030B104F068
:101FF000010018B1FF21E12003F0F8F82146272065
:1020000003F0F4F870BD0000100C00208E000020DA
:1020100070B504460D464FF48070394908600522BA
:1020200038492A2003F0C0F805223749302003F050
:10203000BBF80121212003F0D9F80121222003F06F
:10204000D5F81A21242003F0D1F82946252003F0E1
:10205000CDF80F21262003F0C9F8012C08D120214A
:10206000312003F0C3F80F21202003F0BFF841E036
:10207000022C08D12021312003F0B8F80E212020B5
:1020800003F0B4F836E0032C1AD1FF21E12003F06D
:10209000ADF8FF21E22003F0A9F80F21202003F082
:1020A000A5F8502003F0ECFC732003F0E9FC0121BB
:1020B0003C2003F09BF806213D2003F097F819E03F
:1020C0000E21202003F092F8FF21E12003F08EF88A
:1020D000FF21E22003F08AF8502003F0D1FC7320A6
:1020E00003F0CEFC01213C2003F080F806213D20C6
:1020F00003F07CF84FF480700149091F086070BD3F
:1021000014080140F9810008F481000870B5044604
:102110000D464FF48070064908602A462146A820E3
:1021200003F042F84FF480700149091F086070BD48
:102130001408014010B588B004460121880303F05B
:1021400065FB0121084603F061FB0121042003F037
:102150005DFB4FF40070ADF8040003208DF806001D
:1021600018208DF8070001A9254801F001F94FF466
:102170008060ADF8040003208DF8060004208DF87F
:10218000070001A91E4801F0F3F804940020ADF8FF
:102190001400ADF81600ADF81800ADF81C000C20C6
:1021A000ADF81A000020ADF80800ADF80A004FF4B1
:1021B0000070ADF80C000020ADF80E0004A9114825
:1021C00004F0F4F902A90F4804F0A0F9012240F24A
:1021D00025510C4804F0C4F901210A4804F0A7F97C
:1021E00025208DF8000005208DF8010001208DF8D4
:1021F00002008DF80300684603F072F808B010BDC5
:1022000000080140003801402DE9F04F89B0074631
:10221000022603AC4FF000084FF000094FF0000A0F
:10222000162F7CD2DFE807F07BFDCF9B7BFB99DE8E
:102230007B7B7B7B7B7B7B7B0B1219202728DFF84A
:102240005083DFF85093DFF850A316E0DFF84C839B
:10225000DFF84C93DFF84CA30FE0DFF84C83DFF896
:102260004C93DFF84CA308E0DFF84883DFF848938D
:10227000DFF848A301E000BF00BFB8F1000F20D095
:10228000D8F81000CE49FDF7C9FF8346FEF76EF976
:1022900000B2ADF81000D8F81400C949FDF7BEFF30
:1022A0008346FEF763F900B2ADF81200D8F81800C3
:1022B000C349FDF7B3FF8346FEF758F900B2ADF806
:1022C0001400B9F1000F20D0D9F81000BC49FDF777
:1022D000A5FF8346FEF74AF900B2ADF81600D9F81B
:1022E0001400B749FDF79AFF8346FEF73FF900B2A5
:1022F000ADF81800D9F81800B149FDF78FFF8346F3
:10230000FEF734F900B2ADF81A00BAF1000F22D08E
:10231000DAF81000AA49FDF781FF834600E000E1EA
:10232000FEF724F900B2ADF81C00DAF81400A44955
:10233000FDF774FF8346FEF719F900B2ADF81E00F1
:10234000DAF818009E49FDF769FF8346FEF70EF99B
:1023500000B2ADF820001226E4E00826E2E0994839
:10236000808800B2ADF810009648C08800B2ADF881
:1023700012009448008800B2ADF8140091484088DB
:1023800000B2ADF816008F48008900B2ADF8180011
:102390008C48408900B2ADF81A008A48808900B2A2
:1023A000ADF81C008748C08900B2ADF81E00854812
:1023B000008A00B2ADF820008248408A00B2ADF831
:1023C00022001426AEE0804801680491416805911E
:1023D000806806907D48016807918088ADF82000EC
:1023E00012269FE07A480078012805D17949C8680B
:1023F000FEF7BCF8029001E000200290BDF80A0050
:10240000ADF81000BDF80800ADF8120071498868F9
:10241000FEF7C5F800B2ADF81400062682E07FE0B2
:10242000FFE76B480078012805D16A494868FEF744
:102430009DF8029001E0002002906748006880F05B
:10244000004066490190FDF7E9FE8346FEF78EF8ED
:1024500000B2ADF81000604948686049FDF7DEFE43
:102460008346FEF783F800B2ADF812005A48806840
:1024700080F0004059490190FDF7D0FE8346FEF7F9
:1024800075F800B2ADF81400BDF80A00ADF81600FA
:10249000BDF80800ADF818005148807830B1012827
:1024A00008D0022814D003282ED11FE000204D4967
:1024B00048602DE04B480078012804D140F201101B
:1024C0004849486003E04FF48070464948601FE087
:1024D00044480078012804D140F201204149486075
:1024E00003E04FF400703F49486011E03D48007838
:1024F000012804D140F201303A49486003E04FF42A
:1025000040703849486003E000203649486000BF09
:1025100000BF3448406800B2ADF81A000C2601E054
:1025200000E000BF00BF4AF6AA20ADF80C0046EA62
:10253000072000B2ADF80E005421301D21540225B1
:102540001AE06057691C615648406055681C205667
:1025500061574840691C6054605761564840605557
:10256000615D681C205C0144301D205C084441B260
:10257000301D2154A81CC5B2301D8542E1DB701D01
:10258000C1B2204603F0AAFF09B0BDE8F08F0000F9
:1025900064030020E403002064040020640500209C
:1025A000E4040020E405002064060020E406002086
:1025B0006408002064070020E4080020E4070020ED
:1025C00000007A443003002018030020320000206D
:1025D0003000002054030020240300200000C842E3
:1025E0003C000020480300202DE9F8439248007881
:1025F00020B1012806D002287AD117E001208E49A7
:10260000087016E18D48007818B102208A490870D8
:102610000BE00220FFF7F8FD0120FFF7F5FD032096
:10262000FFF7F2FD0720FFF7EFFD02E18348007896
:1026300010B901208049087080480078C0F38010EC
:10264000E8B11020FFF7E0FD012005F023F811208C
:10265000FFF7DAFD012005F01DF81220FFF7D4FD89
:10266000012005F017F81320FFF7CEFD012005F03B
:1026700011F87248007820F04000704908706F48E7
:10268000007800F03F0000287ED0002500260027BB
:102690006A48007800F0010050B1694D694E6A4FF8
:1026A0006A4C6648007820F001006449087031E007
:1026B00062480078C0F3400050B1654D654E664FEA
:1026C000664C5E48007820F002005C49087021E00A
:1026D0005A480078C0F3800058B1614D614E624F96
:1026E000624C5648007820F004005449087011E00C
:1026F0009EE052480078C0F3C00050B15C4D5D4E82
:102700005D4F5E4C4D48007820F008004B49087042
:1027100000E08EE065B320788DF8010060788DF8D8
:102720000000BDF80000FDF70BFF80465449FDF79F
:10273000A7FD2861A0788DF80100E0788DF80000F1
:10274000BDF80000FDF7FCFE80464D49FDF798FD01
:10275000686120798DF8010060798DF80000BDF87E
:102760000000FDF7EDFE80464549FDF789FDA861B3
:1027700076B3A0798DF80100E0798DF80000BDF8FE
:102780000000FDF7DDFE00E051E080463C49FDF72A
:1027900077FD3061207A8DF80100607A8DF80000B5
:1027A000BDF80000FDF7CCFE80463549FDF768FD19
:1027B0007061A07A8DF80100E07A8DF80000BDF814
:1027C0000000FDF7BDFE80462D49FDF759FDB061C3
:1027D00067B3207B8DF80100607B8DF80000BDF8A9
:1027E0000000FDF7ADFE80462549FDF749FD386143
:1027F000A07B8DF80100E07B8DF80000BDF80000A3
:10280000FDF79EFE80461E49FDF73AFD7861207C6B
:102810008DF80100607C8DF80000BDF80000FDF728
:102820008FFE80461649FDF72BFDB86100BF00E022
:1028300000BF00BFBDE8F883B4010020AA0100205A
:1028400064030020E403002064040020940E0020B0
:1028500064050020E4040020E4050020A60E00200A
:1028600064060020E406002064080020B80E002062
:1028700064070020E4080020E4070020CA0E0020BE
:1028800000007A4470B505461948007800B970BD5B
:102890001848006880F0004417492046FDF7FCFE08
:1028A0001AD31448006880F0004414492046FDF70C
:1028B000E9FE11D30F4948680F49FDF7EDFE0BD330
:1028C0000C4948680D49FDF7DDFE05D30C49486801
:1028D0000C49FDF7E1FE08D20020054908700220EE
:1028E000094988704FF49670088000BFCFE7000058
:1028F00048030020240300200000F0410000F0C144
:1029000054030020000048447800002000BFFEE788
:1029100070B506460C4615462946204605F03EF899
:10292000A06A30602946304605F038F870BD21B104
:10293000026842F00102026004E002684FF6FE7392
:102940001A4002607047000001684FF6FE721140A5
:1029500001600021016041608160C1604B49884293
:1029600008D14A490839496841F00F01474A083AF5
:1029700051608AE045491431884208D143490839F9
:10298000496841F0F001414A083A51607DE03F4911
:102990002831884208D13D490839496841F47061BD
:1029A0003A4A083A516070E038493C31884208D1CF
:1029B00036490839496841F47041344A083A51604F
:1029C00063E032495031884208D1304908394968BA
:1029D00041F470212D4A083A516056E02B49643188
:1029E000884208D129490839496841F47001274AC9
:1029F000083A516049E025497831884208D1234995
:102A00000839496841F07061204A083A51603CE059
:102A10001F49884206D1011F096841F00F01021FBA
:102A2000116032E01A491431884208D11849091F4F
:102A3000096841F0F001164A121F116025E014499F
:102A40002831884208D11249091F096841F4706190
:102A50000F4A121F116018E00D493C31884208D11D
:102A60000B49091F096841F47041094A121F11609E
:102A70000BE007495031884207D10549091F096811
:102A800041F47021024A121F116070470800024091
:102A90000804024010B50022026847F6F0739A431A
:102AA0000C6A8B6823430C6923434C6923438C696C
:102AB0002343CC6923434C6A23438C6A23431A4340
:102AC0000260CB6843600B6883604B68C36010BDD5
:102AD000704700002DE9F04105F0D4F905F00AFA3D
:102AE0001D49086005F098F905F00AF91B490860CE
:102AF000084601681A48FDF78BFB04461949FDF7A3
:102B0000BFFB19490860154801681548FDF780FBAF
:102B100007461649FDF782FB06461549FDF77EFB81
:102B20000446114801681348FDF778FB07460E4834
:102B300001683846FDF772FB06460B4801683046CF
:102B4000FDF76CFB05462146FDF710FB0A490860BE
:102B500008460068BDE8F081FC000020000100206C
:102B60000044C54700007A44F4000020EC51B83D11
:102B70000000C84285EB513FF800002010B5264800
:102B800000782649087000202349087024480078FE
:102B900024490870002022490870234800782349FE
:102BA00008700020204908702148007821490870E9
:102BB00000201F4908701D4800780A2803DD002006
:102BC0001D49087005E000201C49087001201A49C1
:102BD0000870184800780A2803DD0020184908709A
:102BE00002E001201649087016480078012801D13A
:102BF00004F070FE002014490860002409E0134826
:102C000050F824001049096808440F490860601C06
:102C1000C4B2062CF3DB10BD8C0000208B0000201A
:102C20004F0200204E020020EB000020EA000020AE
:102C3000EF000020EE000020EC000020ED0000205E
:102C4000F0000020C001002024000020C402002069
:102C500010B501F029F80F49C86002F051FE0E4886
:102C600002F042FC0C4800F083F90C48FFF70AFE22
:102C70000A4801F027F90A2001F066FA064801F037
:102C800037F801F011F80349C968401A0149C860D2
:102C900010BD0000C4020020A69BC43B0AD7233C01
:102CA00010B501F001F806490861FFF79DFC00F03E
:102CB000FBFF03490969401A0149086110BD000082
:102CC000C402002010B500F0EFFF0849086002F0D0
:102CD00061F8074800F0ACF801F0B8FE00F0E4FF3E
:102CE00002490968401A0149086010BDC402002069
:102CF0006F12033B10B500F0D7FF09494860FFF79A
:102D000057F9FEF79DF802F031FE064801F096FEF5
:102D100000F0CAFF02494968401A0149486010BDE5
:102D2000C40200206F12833B10B500F0BDFF0849BC
:102D3000486102F019FB00F027F803F0AFFC00F047
:102D4000B3FF03494969401A0149486110BD0000B9
:102D5000C402002010B500F0A7FF07498860074AA9
:102D60000749084800F0E0FB00F09EFF024989682F
:102D7000401A0149886010BDC4020020A69BC43BD4
:102D80002403002018030020002021490880214846
:102D9000007820B90846008840F0010008801E48ED
:102DA000007828B91A48008840F0020018490880C5
:102DB0001A48007828B91648008840F004001449E1
:102DC00008801748007828B11148008840F00800B2
:102DD0000F4908801348007828B90D48008840F052
:102DE00010000B49088010480078012805D10848D8
:102DF000008840F02000064908800C48007828B977
:102E00000348008840F040000149088070470000F6
:102E1000BC010020880000208A00002089000020DA
:102E2000E9000020EC0000207C000020F0000020E1
:102E300070B5044642480078012806D00B280BD014
:102E40001F2817D0FF286FD165E03E48007810B1E9
:102E50000B203B4908706BE008213B4804F088FDDB
:102E600000203A4948620860394988601F20344987
:102E700008705DE03749B1F90600FDF758FB0546DB
:102E8000354801682846FDF7C9F934494862314997
:102E9000B1F90800FDF74BFB05462F4801682846AD
:102EA000FDF7BCF92E4948622A49B1F90A00FDF73D
:102EB0003EFB0546284801682846FDF7AFF9294939
:102EC00048622348406828494862214800682749E9
:102ED00048621F4880681D4948622146234804F023
:102EE0005DFD2248806A1D49086021461B4804F0A8
:102EF00055FD21461C4804F051FD1B48806A1849C5
:102F000008602146164804F049FD22460F4915483D
:102F1000FFF7FEFC0CE008210B4804F029FD01201E
:102F20000749087004E0FFE7FF200549087000BF6B
:102F300000BF0448007810B9FF200149087070BD37
:102F40003C02002048030020D8010020E4050020B6
:102F500024030020180300200C82000864030020D2
:102F6000E403002064040020E40400206405002041
:102F700070B5044696253248407E012857D1314825
:102F80000068052853D92F480068B0F5C87F4ED295
:102F90002D480088D8B92D48C06C2D49486221467B
:102FA0002B4804F0FBFC2A49886A2A49FDF76AFB92
:102FB00001D2284809E02649886A2749FDF76CFBB9
:102FC00001D2254801E02248806A2449086024484B
:102FD0000088D8B91D48806C2249486221462148A2
:102FE00004F0DCFC1F49886A1A49FDF74BFB01D24B
:102FF000184809E01B49886A1749FDF74DFB01D2C3
:10300000154801E01748806A174908600F48C06CEE
:10301000124948622146114804F0C0FC0B48806CFC
:10302000114948622146104804F0B8FC07E000202E
:1030300003498860C8600C4988620849886270BD8D
:10304000A40D00200C02002020020020C80D00204A
:10305000E407002000007AC400007A44E40800205D
:103060001E020020640700206408002070B504469A
:1030700000256048007820B1012814D002287DD1B5
:1030800023E0FE2C0BD101205A4908705A480178E0
:103090000078401C584A10705848445402E0002000
:1030A00054490870A4E0042C0BD102205149087047
:1030B000514801780078401C4F4A10704F484454E2
:1030C00002E000204B49087092E04B4801780078FC
:1030D000401C494A107049484454104600780B2857
:1030E0007FD100204349087011460870434880781A
:1030F0004249C97808444149097908443F49497916
:1031000008443E49897908443C49C9790844C5B214
:10311000AA2C66D13948007AA84262D13848007892
:10312000401C374908703549C978090209B2334A49
:10313000927841EA0200FDF7FAF9324908602F4916
:103140004979090209B22D4A127941EA0200FDF7D4
:10315000EEF92C4948602948407A08762749C97910
:10316000090209B2254A927941EA0200FDF7DFF926
:103170002449C8610A461168906800E032E0FCF713
:10318000F5FF204988600A465168D068FCF7EEFFD9
:103190001C49C8600A4611681069FCF7E7FF194925
:1031A00008610A4651685069FCF7E0FF154948611B
:1031B0000846007E19280EDA13480078401C124990
:1031C0000870084600783C280BDD3C200870002081
:1031D0000C49487605E000200B4908700120094998
:1031E000487605E00020034908700349087000BFD5
:1031F00000BF70BD9901002098010020280E00201A
:10320000EF000020A40D00209A0100202DE9F047D6
:103210004FF0824A4A48407E01286ED149480068F2
:1032200005286AD947480068B0F5C87F65D2464985
:10323000498840F2DC52501AFDF779F905464349B6
:10324000FCF7ECFF04465146FCF7E8FF40490860F4
:103250003D49098840F2DC52501AFDF768F90546ED
:103260003A49FCF7DBFF04465146FCF7D7FF3949E2
:1032700008603749886AFDF7A6F98046364A374B19
:10328000FDF7E3F806460022354BFDF7AFF902D211
:10329000002033491AE02E49886AFDF794F98046E8
:1032A0002D4A2E4BFDF7D1F8064600222D4BFDF797
:1032B000B5F902D200202B4908E02549886AFDF7BC
:1032C00082F90646244A254BFDF7BFF80446FDF770
:1032D000BDF9254908601F49886AFDF774F906465B
:1032E0001D4A1E4BFDF7B1F8804600221C4BFDF72E
:1032F0007DF903D200201A491BE01FE01549886AB6
:10330000FDF761F90646144A144BFDF79EF8804616
:103310000022144BFDF782F902D20020114908E087
:103320000C49886AFDF74FF906460B4A0B4BFDF72F
:103330008CF80446FDF78AF90C490860BDE8F0876F
:10334000A40D00200C020020300300208FC2753D28
:1033500064080020E40800209A9999999999B93F46
:1033600000002EC000002E40E40400206405002070
:103370002DE9F0410246002500260020002300240C
:10338000002791F803C00CF00F0591F803C00CF072
:10339000100CBCF1000F03D091F802C04CEA0505F7
:1033A00091F800C0BCF1000F31D0146800202BE070
:1033B0004FF0010C0CFA00F3B1F800C00CEA030660
:1033C0009E4220D183004FF00F0C0CFA03F7BC4350
:1033D00005FA03FC4CEA040491F803C0BCF1280F81
:1033E00006D14FF0010C0CFA00FCC2F814C00AE040
:1033F00091F803C0BCF1480F05D14FF0010C0CFA55
:1034000000FCC2F810C0401C0828D1D31460B1F8E9
:1034100000C0BCF1FF0F34DD546800202EE000F145
:10342000080C4FF0010808FA0CF3B1F800C00CEAE0
:1034300003069E4221D183004FF00F0C0CFA03F7D4
:10344000BC4305FA03FC4CEA040491F803C0BCF148
:10345000280F05D100F1080C08FA0CF8C2F8148006
:1034600091F803C0BCF1480F07D100F1080C4FF0F0
:10347000010808FA0CF8C2F81080401C0828CED3C6
:103480005460BDE8F0810000F0B50A460023002436
:103490000021002500F00046B6F1004F02D11D4E7C
:1034A000F16901E01B4E7168C0F3034583B200F47B
:1034B0004016B6F5401F08D121F07061154E7668B0
:1034C00026F07066134F7E6012E000F48016B6F5A9
:1034D000801F06D1032606FA05F4A14341F070616E
:1034E00006E0460D360103FA06F6B14341F070617D
:1034F00022B1460D360103FA06F6314300F00046CC
:10350000B6F1004F02D1034EF16101E0014E71604E
:10351000F0BD0000000001400161704701480068F3
:10352000704700006002002007B59EB04FF07C514C
:103530002098FCF773FE0C90FE4880680890FD48C8
:10354000006807900899FCF769FE0A90F948C0687E
:103550000890F848406807900899FCF75FFE0990CA
:103560000A99FCF755FE4FF080410B90FCF756FE90
:103570001B90F048C0680890EE4880680790089952
:10358000FCF74CFE0A90EB4840680890E948006858
:1035900007900899FCF742FE09900A99FCF7E6FDAE
:1035A0004FF080410B90FCF739FE1C90E148806899
:1035B0000790E048806806900799FCF72FFE099075
:1035C000DC4840680790DB48406806900799FCF7A4
:1035D00025FE08900999FCF7C9FD4FF080410A903B
:1035E000FCF71CFE4FF07E510B90FCF714FE1D9073
:1035F000D148B0F904000690FCF799FF0890CE4836
:10360000B0F904000690FCF792FF07900899FCF7C8
:1036100005FE0A90C848B0F902000490FCF787FF45
:103620000690C548B0F902000490FCF780FF0590B1
:103630000699FCF7F3FD0890BF48B0F9000004902C
:10364000FCF775FF0690BC48B0F900000490FCF749
:103650006EFF05900699FCF7E1FD07900899FCF7CD
:1036600085FD09900A99FCF781FD0B9002F07AF82C
:103670000D901E98B0F900000A90FCF758FF0B90CF
:103680000D99FCF7CBFD18901E98B0F902000A9036
:10369000FCF74DFF0B900D99FCF7C0FD19901E989B
:1036A000B0F904000A90FCF742FF0B900D99FCF76B
:1036B000B5FD1A901C9809901A9808900999FCF782
:1036C000ADFD0B901D980990199808900999FCF789
:1036D000A5FD0A900B99FCF79BFD12901D9809908F
:1036E000189808900999FCF799FD0B901B98099080
:1036F0001A9808900999FCF791FD0A900B99FCF72C
:1037000087FD13901B980990199808900999FCF768
:1037100085FD0B901C980990189808900999FCF762
:103720007DFD0A900B99FCF773FD149012980A9096
:10373000824801680A98FCF771FD0B908048006888
:1037400001460A900B98FCF711FD7D49086013981B
:103750000A907A4801680A98FCF760FD0B90784857
:10376000406801460A900B98FCF700FD74494860D8
:1037700014980A90714801680A98FCF74FFD0B9065
:103780006F48806801460A900B98FCF7EFFC6C4983
:1037900088601298014608906A480068FCF73EFD70
:1037A0000A901E98B0F906000790FCF7C0FE08903A
:1037B000654801680898FCF731FD09900A99FCF703
:1037C000D5FC0B905E48006801460A900B98FCF708
:1037D000CDFC15901398014608905A480068FCF7F4
:1037E0001DFD0A901E98B0F908000790FCF79FFE97
:1037F0000890554801680898FCF710FD09900A994F
:10380000FCF7B4FC0B904E48406801460A900B98B8
:10381000FCF7ACFC169014980146089049480068E3
:10382000FCF7FCFC0A901E98B0F90A000790FCF720
:103830007EFE0890444801680898FCF7EFFC099068
:103840000A99FCF793FC0B903D48806801460A906A
:103850000B98FCF78BFC1790179808903548C068B8
:1038600007900899FCF7DAFC0A9016980690314800
:10387000806805900699FCF7D1FC08902D484068B7
:1038800080F0004006901598014605900698FCF7D8
:10389000C5FC07900899FCF7BBFC09900A99FCF756
:1038A000B7FC0B900C99FCF7B9FC11901798089095
:1038B0002048806807900899FCF7B0FC0A90169899
:1038C00006901C48C06805900699FCF7A7FC089074
:1038D000159806901748006805900699FCF79EFC1D
:1038E00007900899FCF794FC09900A99FCF73EFCB4
:1038F0000B900C99FCF792FC1090179808900D48CB
:10390000406807900899FCF789FC0A901698069081
:103910000848006805900699FCF780FC0890159807
:1039200006900448C06805900699FCF777FC07905C
:1039300008990BE06C0200201803002068020020A8
:103940007C1000206402002010820008FCF70EFCAE
:1039500009900A99FCF75CFC0B900C99FCF75EFC53
:103960000F9017980890C648006807900899FCF7D0
:1039700055FC0A9016980690C14840680590069933
:10398000FCF74CFC0890BE48806880F00040069030
:103990001598014605900698FCF740FC0790089999
:1039A000FCF7E4FB09900A99FCF7E0FB0B900C99FB
:1039B000FCF734FC0E90B24800680B901199FCF7AC
:1039C000D5FBAF490860084640680B901099FCF79A
:1039D000CDFBAB494860084680680B900F99FCF717
:1039E000C5FBA74988600846C0680B900E99FCF794
:1039F000BDFBA349C8600846C06808900846C06877
:103A000007900899FCF70AFC0A909D488068069088
:103A10009B48806805900699FCF700FC0890984840
:103A2000406804909648406803900499FCF7F6FBC0
:103A300006909348006804909148006803900499A8
:103A4000FCF7ECFB05900699FCF790FB07900899B2
:103A5000FCF78CFB09900A99FCF788FB0B9001F0AE
:103A600081FE0D90864800680B900D99FCF7D6FBFF
:103A700083490860084640680B900D99FCF7CEFB1F
:103A80007F494860084680680B900D99FCF7C6FB9B
:103A90007B4988600846C0680B900D99FCF7BEFB17
:103AA0007749C86008464068014604904FF080405E
:103AB000FCF7B4FB05907248C06801460490059875
:103AC000FCF7ACFB07906E480068014604904FF08D
:103AD0008040FCF7A3FB059069488068014604908C
:103AE0000598FCF79BFB06900799FCF791FB0B9060
:103AF00063480068014604904FF08040FCF78EFB5D
:103B000005905F484068014604900598FCF786FBE5
:103B100007905B488068014604904FF08040FCF7B6
:103B20007DFB05905648C068014604900598FCF757
:103B300075FB06900799FCF719FB0A9050488068BE
:103B4000014604904FF08040FCF768FB05904C481C
:103B50008068014604900598FCF760FB0790484890
:103B60004068014603904FF08040FCF757FB0490FB
:103B700043484068014603900498FCF74FFB4FF020
:103B80007E510590FCF747FB06900799FCF740FB38
:103B900009901E98B0F90A000690FCF7C8FC07903F
:103BA000384801680798FCF739FB08904FF07E51C0
:103BB0000898FCF771FD04D333490898FCF762FDBF
:103BC0000DD220990898FCF729FB07901F98806870
:103BD000014606900798FCF7C9FA1F9988602B48A0
:103BE0000068FCF7F0FCCDE904010B98FCF7EBFC56
:103BF000CDE9000103F0D6FACDE90201DDE90423A5
:103C0000FCF723FCCDE90601FCF720FD1F99486075
:103C1000DDE9091003F0FEFB07901C4801680798D6
:103C2000FCF7FCFA1F9908601E98B0F90400049094
:103C3000FCF77DFC05900999FCF7F0FA07901E98B7
:103C4000B0F902000290FCF772FC03900A99FCF7AD
:103C5000E5FA05901E98B0F900000290FCF767FCA9
:103C600003900B99FCF7DAFA04900599FCF77EFAB9
:103C700006900799FCF77AFA0549086021B000BD63
:103C80006C0200200C820008000080BF0482000843
:103C90006002002002480068024908607047000086
:103CA000E8F7FF1F3800002000BF0E4801684FF002
:103CB000E02082690B4800688142F6D10A4800681A
:103CC00000EB4003C3EBC010C2EBC000064B1B6807
:103CD000B0FBF3F001EB4103C3EBC11300EBC300F6
:103CE000704700002C0000201400002000BFFEE7F9
:103CF0002DE9F05F05465E49C8695E49FCF7C2FCE4
:103D000006D25B49C869FCF74AFC5B49086005E0DC
:103D10005A494868FCF743FC57490860FFF7FEFB27
:103D20000746FCF723FC04B25548007808B955480B
:103D3000048054480088201A06B24F480068FCF7F7
:103D4000FFFB8346504801685846FCF761FA8246FB
:103D50004E49FCF763FA81462946FCF791FA07467B
:103D60003046FCF7E4FB83462946FCF757FA8246C7
:103D70004748416A5046FCF7F9F981464549FCF746
:103D80004DFA80463946FCF7F1F9414948623A4814
:103D90000068FCF7D5FB404948623B490860384859
:103DA000007810B9FF203D4908703C480078012890
:103DB00006D0022816D01F2832D0FF2850D147E065
:103DC0002F48007A00F0010058B12D48007840B12A
:103DD000052033498870022030490870002031499D
:103DE000086041E030498988A1F57A70FCF79FFBB3
:103DF0002C49086000202D4908702D48B0F90000BA
:103E0000FCF795FB244908602A48C06C2A490860E1
:103E10002848806C294908601F202049087023E049
:103E200029461D4803F0BAFD1B48806A18490860FE
:103E30002946174803F0B2FD1148007A00F001004E
:103E400028B9002016498870FF20144908700BE03B
:103E500001211B4803F08CFD01201049087003E08C
:103E600001200E49087000BF00BFBDE8F09F0000B0
:103E7000A40D00200000C8430C02002054030020C1
:103E8000480300202C020020380200200AD7A33C5F
:103E90006406002048E17A3FE40600202A02002060
:103EA000780000203002002030030020340200207F
:103EB00008020020C80D0020E4070020640700204D
:103EC000F00100202DE9F84F04469048007808B929
:103ED000BDE8F88F8E48007888B100208D490860D1
:103EE0008D490860FEF7F6FD0546FCF73FFB8B4960
:103EF000086000F0B3F90020854908702AE087487F
:103F00000068FCF714FB0646FEF7E4FD0746314661
:103F1000FCF77EF90546FCF729FB7E490860002185
:103F20002046FCF7AFFB01D100200AE0794909687F
:103F3000794A1268881AFCF7FAFA06462146FCF715
:103F40009FF90546FCF712FB754908607148006847
:103F50007149086072480068FCF7E9FA0546714843
:103F60002B46714A0A210090704800F0C1FE70494A
:103F70002046FCF753F906466E480068FCF7D7FA6E
:103F80000746684801683846FCF745F9054631465A
:103F9000FCF778FB04D266492046FCF73FF922E0A3
:103FA00065492046FCF73AF9064662480068FCF786
:103FB000BEFA07465B4801683846FCF72CF905460F
:103FC0003146FCF769FB04D25B492046FCF726F931
:103FD00009E058480068FCF7AAFA0546514801680C
:103FE0002846FCF718F955490860554801685348B8
:103FF0000068FCF70DF9814652492046FCF70EF99E
:10400000824651464FF07E50FCF73AF980464FF019
:104010007E51FCF7ABF8074639464FF07E50FCF76F
:104020002FF906464946FCF7F9F805464448016869
:104030002846FCF79BF8424908603F492046FCF7B8
:10404000EDF8834600213E480068FCF725FB02D2CC
:104050003B48006803E03A48006880F00040814631
:104060005946FCF70DF907460021FCF70BFB01D27E
:10407000002034E030492046FCF7D0F88346002188
:104080002F480068FCF708FB02D22D48006803E0C7
:104090002B48006880F0004081465946FCF7F0F854
:1040A00007464FF07E51FCF7F7FA02D24FF07E50F0
:1040B00015E021492046FCF7B1F88146002120484F
:1040C0000068FCF7E9FA02D21D48006803E01C48CA
:1040D000006880F0004007464946FCF7D1F880466A
:1040E000164801684046FCF799F8064611480068F2
:1040F000FCF71DFA82463146FCF738F80546FCF716
:1041000035FA0C49086000BFE2E6000030000020EC
:104110002801002004010020080100200C010020DB
:1041200010010020180100201C010020C00C0020FC
:104130000000FAC4140100200000FA44200100200D
:1041400024010020C3F5484070B504463248007889
:1041500000B970BD3148007800284AD03048006866
:1041600030490860304800683049086030483149BB
:104170008860314988683149FCF782F82D49086028
:104180002A480068FCF7D3F92A4948602C48C860DF
:104190002046FCF7D5F906462A49FCF73FF80546C4
:1041A000244903F08FFA2248274988602148406952
:1041B00008601C480068FCF7BAF9234948602348A6
:1041C000C8602046FCF7BCF906461E49FCF726F8F5
:1041D00005461D4903F076FA11480068FCF7A7F977
:1041E0001B49C860184840694860124840698860A7
:1041F0000FE018480088401C1649088008460088CF
:10420000C82803DD01200549087002E00120124999
:10421000087000BF9DE7000030000020440100202E
:10422000040100202C010020140100203001002096
:10423000CDCC4C3F000D0020240300200000204185
:10424000000048436F12833AE80C00200000C84287
:104250005403002090010020280100200020034981
:10426000486108610249486108617047000D0020FB
:10427000E80C002008B5402030490860012000907B
:1042800004E09DF80000401EC0B200909DF80000C0
:104290000028F6D18020294908600120009004E020
:1042A0009DF80000401EC0B200909DF8000000285C
:1042B000F6D140202149091F08600120009004E048
:1042C0009DF80000401EC0B200909DF8000000283C
:1042D000F6D10120009004E09DF80000401EC0B21D
:1042E00000909DF800000028F6D10120009004E025
:1042F0009DF80000401EC0B200909DF8000000280C
:10430000F6D10120009004E09DF80000401EC0B2EC
:1043100000909DF800000028F6D140200749086071
:104320000120009004E09DF80000401EC0B2009003
:104330009DF800000028F6D108BD0000140C0140D3
:1043400008B54020304908600120009004E09DF845
:104350000000401EC0B200909DF800000028F6D179
:1043600080202949091F08600120009004E09DF881
:104370000000401EC0B200909DF800000028F6D159
:1043800040202149091F08600120009004E09DF8A9
:104390000000401EC0B200909DF800000028F6D139
:1043A0000120009004E09DF80000401EC0B2009083
:1043B0009DF800000028F6D10120009004E09DF84F
:1043C0000000401EC0B200909DF800000028F6D109
:1043D0000120009004E09DF80000401EC0B2009053
:1043E0009DF800000028F6D1402007490860012010
:1043F000009004E09DF80000401EC0B200909DF8BF
:1044000000000028F6D108BD140C014008B50821B1
:10441000002080222C4B1A604CE04206100E4022F5
:10442000294B1B1D1A600122009204E09DF8002018
:10443000521ED2B200929DF80020002AF6D101222D
:10444000009204E09DF80020521ED2B200929DF826
:104450000020002AF6D140221B4B1A600122009254
:1044600004E09DF80020521ED2B200929DF8002078
:10447000002AF6D10122009204E09DF80020521E8D
:10448000D2B200929DF80020002AF6D101220092BB
:1044900004E09DF80020521ED2B200929DF8002048
:1044A000002AF6D1084A083A126802F080020AB1DE
:1044B00040F001000A00A1F10103D9B2ADD14022C0
:1044C000014B1B1D1A6008BD100C014008B50821E6
:1044D00050E040222C4B1A600122009204E09DF82B
:1044E0000020521ED2B200929DF80020002AF6D180
:1044F00000F0800222B18022234B1B1F1A6002E0D1
:104500008022214B1A604206100E0122009204E024
:104510009DF80020521ED2B200929DF80020002A81
:10452000F6D14022184B1B1F1A600122009204E0B2
:104530009DF80020521ED2B200929DF80020002A61
:10454000F6D10122009204E09DF80020521ED2B262
:1045500000929DF80020002AF6D10122009204E08A
:104560009DF80020521ED2B200929DF80020002A31
:10457000F6D100BF0A00A1F10103D9B2A9D14022AE
:10458000014B1A6008BD0000140C014008B58020E2
:1045900022490860402008600120009004E09DF856
:1045A0000000401EC0B200909DF800000028F6D127
:1045B0001A480838006808B9012000E0002000F01F
:1045C000800008B1012008BD80201449091D086041
:1045D0000120009004E09DF80000401EC0B2009051
:1045E0009DF800000028F6D10C480838006800F05B
:1045F000800008B10120E6E740200849091D086055
:104600000120009004E09DF80000401EC0B2009020
:104610009DF800000028F6D100BFD4E7100C01403F
:1046200008B54020244908600120009004E09DF86E
:104630000000401EC0B200909DF800000028F6D196
:1046400080201D4908600120009004E09DF80000D2
:10465000401EC0B200909DF800000028F6D1012055
:10466000009004E09DF80000401EC0B200909DF84C
:1046700000000028F6D140200F49091F08600120E2
:10468000009004E09DF80000401EC0B200909DF82C
:1046900000000028F6D180200749091F086001208A
:1046A000009004E09DF80000401EC0B200909DF80C
:1046B00000000028F6D108BD140C014008B54020C8
:1046C0002A4908600120009004E09DF80000401E87
:1046D000C0B200909DF800000028F6D18020234948
:1046E000091F08600120009004E09DF80000401EB2
:1046F000C0B200909DF800000028F6D140201B4970
:10470000091F08600120009004E09DF80000401E91
:10471000C0B200909DF800000028F6D10120009062
:1047200004E09DF80000401EC0B200909DF800001B
:104730000028F6D10120009004E09DF80000401E02
:10474000C0B200909DF800000028F6D107480C3850
:10475000006800F0800020B140200449086001207A
:1047600008BD4020014908600020F9E7140C014011
:1047700008B50121082001F049F8C020ADF800007B
:1047800003208DF8020014208DF8030069460248CA
:10479000FEF7EEFD08BD0000000C014070B50446B8
:1047A0000D461646FFF7F2FE012800D170BDE0B2BB
:1047B000FFF78CFEFFF782FF012803D1FFF730FFE0
:1047C0000120F3E7E8B2FFF781FEFFF777FFFFF77D
:1047D000DDFE611CC8B2FFF779FEFFF76FFFFFF740
:1047E00015FE40B23070FFF71BFF0020DEE770B50A
:1047F00004460D460026FFF7C9FE012800D170BD12
:104800002046FFF763FEFFF759FF012803D1FFF7AA
:1048100007FF0120F3E72846FFF758FEFFF74EFF9A
:10482000FFF7FEFEFFF7B2FE611CC8B2FFF74EFEB7
:10483000FFF744FF012803D1FFF7F2FE0120DEE776
:10484000FFF7E4FD0646FFF77BFDFFF7E9FE70B2D8
:10485000D5E770B506460C461546FFF797FE0128CA
:1048600000D170BD3046FFF731FEFFF727FF01286A
:1048700003D1FFF7D5FE0120F3E72046FFF726FE20
:10488000FFF71CFF2846FFF721FEFFF717FFFFF792
:10489000C7FE0020E5E72DE9F04106460F46154624
:1048A0001C46FFF773FE012801D1BDE8F0813046B8
:1048B000FFF70CFEFFF702FF012803D1FFF7B0FE60
:1048C0000120F2E73846FFF701FEFFF7F7FEFFF79A
:1048D000A7FEFFF75BFE711CC8B2FFF7F7FDFFF7FD
:1048E000EDFE012803D1FFF79BFE0120DDE70CE080
:1048F000FFF78CFD2870012C02D1FFF721FD01E0AC
:10490000FFF7B8FC6D1C601EC4B2002CF0D1FFF79D
:1049100087FE0020C9E700004CF6CC400149086042
:10492000704700000030004010B500F013F810BDD3
:1049300070B505460C4645F2555000F01FF8284664
:1049400000F010F8204600F013F800F003F8FFF72D
:10495000E3FF70BD4AF6AA200149086070470000D5
:1049600000300040014948607047000000300040BE
:10497000014988607047000000300040014908602C
:10498000704700000030004008B54FF000700C493F
:1049900048600121092000F039FF01210948FEF794
:1049A00073FD40F20A30ADF8000010208DF80300CE
:1049B00003208DF8020069460348FEF7D9FC08BDC4
:1049C0000000014000023000000C014019488088BE
:1049D000401C00B2174988800846C088401C00B2BD
:1049E000C88008460089401C00B2088108464089FA
:1049F000401C00B2488108468089401C00B2888172
:104A00000846C089401C00B2C8810846008A401C84
:104A100000B2088208460078012804DB0846408876
:104A2000401C488004E003480078401C014908709D
:104A300070470000B002002000BFFEE770B50546D9
:104A4000014CFEF7E3FB70BD0AD7233D2DE9F0478B
:104A50009E48007810B9FF209D4908709C48007856
:104A6000012806D0022811D01F2819D0FF287DD197
:104A7000C6E000209749C880888048800880934815
:104A8000007810B102209249087000BF92488088D7
:104A900040F24C41884202DD1F208D490870BAE087
:104AA0008A48007A00F0010080B18B498988A1F51D
:104AB0007A70FBF73CFD06468848816A3046FBF772
:104AC00055FB0546FBF752FD04B204E0824880889E
:104AD000A0F57A7004B280488088B0F57F7F06DA4E
:104AE00000207C49C88088804880088093E0002CA2
:104AF00001DA002006E0B4F5617F02DD4FF4617059
:104B000000E020467349C880888048800880744A45
:104B1000916A744A906AFBF77BFB80467248816A0F
:104B20004046FBF775FB06466A49B1F90000FBF702
:104B3000FEFC07463146FBF719FB0546FBF716FD61
:104B400000B264490880664A916A664A906AFBF737
:104B50000DFB80466448816A4046FBF707FB06462A
:104B60005C49B1F90200FBF7E2FC00E052E00746C5
:104B70003146FBF7FBFA0546FBF7F8FC00B2554956
:104B800048805848806A80F000485548816A40460D
:104B9000FBF7ECFA07465448816A3846FBF738FBC6
:104BA00006464C49B1F90400FBF7C1FC8146314689
:104BB000FBF7DCFA0546FBF7D9FC00B245498880D3
:104BC0004848806A80F000484548816A4046FBF7C3
:104BD0001FFB07464448816A3846FBF7C7FA06467A
:104BE0003C49B1F90600FBF7A2FC81463146FBF7D0
:104BF000BDFA0546FBF7BAFC00B23649C8800AE0A8
:104C000000203449C88088804880088001203049CD
:104C1000087000E000BF00BF2E48B0F90000002877
:104C200001DA00200BE02B48B0F90000B0F57A7FE4
:104C300002DD4FF47A7002E02648B0F900004FF030
:104C4000804188862348B0F90200002801DA00205C
:104C50000BE02048B0F90200B0F57A7F02DD4FF496
:104C60007A7002E01B48B0F902004FF080410887DB
:104C70001848B0F90400002801DA00200BE01548BC
:104C8000B0F90400B0F57A7F02DD4FF47A7002E0EB
:104C90001048B0F90400154908800E48B0F9060024
:104CA000002801DA00200BE00A48B0F90600B0F550
:104CB0007A7F02DD4FF47A7002E00648B0F9060010
:104CC0000A49091D0880BDE8F0870000480300205C
:104CD0003D02002022020020300300206406002054
:104CE000E403002064030020640400203404004036
:104CF0002DE9FC5F06460F46154698460C9CB946C2
:104D00002888401C80B22880484501DB002028808C
:104D1000288856F820A0288846F820804846FBF7C7
:104D20000FFC514601904046FBF772FA0090019942
:104D3000FBF7A6FA83462168FBF718FA2060404685
:104D40002168FBF765FA11490090FBF79BFC01D243
:104D50000E4810E040462168FBF75AFA4FF07E51AA
:104D60000090FBF799FC02D24FF07E5003E04046E2
:104D70002168FBF74DFA06490190FBF74FFA83468D
:104D80002168FBF7F3F92060BDE8FC9F000080BFBD
:104D9000ACC527372DE9FE4F06236A463B21D020BC
:104DA000FFF779FD06230DF106024321D020FFF71E
:104DB00072FD002458E0012000EB44001DF80000C3
:104DC0001DF8141040EA0120294931F81410401A46
:104DD00000B22849096821F81400032C1BDA254980
:104DE000096831F91400FBF7A2FB054604EB440106
:104DF000214A02EBC100294602F0ACFC04EB44015D
:104E00001D4A02EBC1018868FBF7B0FB00B21949EB
:104E1000096821F81400022C24DDE01EC5B2DFF879
:104E20005C801449096831F91400FBF780FB824665
:104E30004146FBF7F3F90746114951F8250011499E
:104E4000FBF7ECF981463946FBF790F90C4941F83C
:104E500025000646FBF78AFB00B20649096821F8DF
:104E6000140000BF601CC4B2062CA4DBBDE8FE8F9A
:104E70007C0C0020980000209C0000209A99193E8C
:104E8000880C00209A99593FF0B58BB0182105A8DD
:104E9000FBF761F91E250526774200200390049058
:104EA000404800210160416081604FF400503D495D
:104EB0008880002201213C4800F0CCFF3BE000BF8D
:104EC0000A2002F0E7FBFFF765FF002416E03748F1
:104ED0000168E01C31F8100003A931F81410401AE1
:104EE00000B201A921F8140030480168E01C31F833
:104EF000100003A921F81400601C04B2032CE6DBA7
:104F0000BDF904000528DBDCBDF9040010F1050F34
:104F1000D6DBBDF906000528D2DCBDF9060010F18C
:104F2000050FCDDBBDF908000528C9DCBDF9080077
:104F300010F1050FC4DB2800A5F10101CDB2BED1EF
:104F4000002417E0FFF726FF642C11DB00200CE0A3
:104F500005A951F82010154A126832F910201144A1
:104F600005AA42F82010411CC8B20628F0DB00BF99
:104F7000601C04B2B4F5B27FE4DB002409E005A8AC
:104F800050F82400001200B2064921F81400601CF9
:104F900004B2062CF3DB01221146034800F05AFF4D
:104FA0000BB0F0BD7C0C00200004004098000020F5
:104FB00010B500244FF400702549086040100860C7
:104FC0000220091F08600820086000BF80226B21B2
:104FD000D020FFF73EFCC4B21E2002F05BFB022291
:104FE0001921D020FFF735FC2044C4B203226B21E5
:104FF000D020FFF72EFC2044C4B203221A21D02077
:10500000FFF727FC2044C4B218221B21D020FFF751
:1050100020FC2044C4B209221C21D020FFF719FC37
:105020002044C4B201200B490870002CCED1752158
:10503000D020FFF7DCFBC4B2682C01D0012010BDEA
:10504000FFF722FF00200349087000BFF7E70000C8
:10505000140C014088000020704700001FB510A10B
:1050600003C9CDE90201052202A9302000F09CF815
:1050700005226946102000F05FF8002406E01DF8C4
:105080000400A52800D003E0601CC4B2052CF6DBA8
:1050900000BF052C02D0012004B010BD0020FBE7AA
:1050A000A5A5A5A5A500000008B501210C2000F0CC
:1050B000ADFB4FF48070ADF8000010208DF80300B8
:1050C00003208DF8020069461948FEF751F94FF4A4
:1050D0008050ADF8000010208DF8030003208DF8FB
:1050E000020069461348FEF743F94FF480701049F7
:1050F0001031086000010F49103108600420ADF83C
:10510000000048208DF8030003208DF80200694656
:105110000848FEF72DF900F03DFC4FF4807004497B
:1051200014310860000103491031086008BD000017
:1051300000080140000C01402DE9F04107460D46F2
:1051400016464FF480500C490860384600F098FC31
:105150008046002405E0FF2000F092FC2855601CEA
:10516000C4B2B442F7DB4FF480500349091F086012
:105170004046BDE8F0810000140C014070B50446C3
:105180004FF4805007490860204600F079FCFF206A
:1051900000F076FC05464FF480500249091F086074
:1051A000284670BD140C01402DE9F04107460C461D
:1051B00015464FF480500C490860384600F060FCFA
:1051C0008046002605E014F8010B00F059FC701C25
:1051D000C6B2AE42F7DB4FF480500349091F0860A6
:1051E0004046BDE8F0810000140C014070B5054652
:1051F0000C464FF4805008490860284600F040FCF7
:105200000646204600F03CFC4FF480500249091F3E
:105210000860304670BD0000140C014010B5FFF767
:1052200043FF4FF4007012490860401008600220EC
:10523000091D08600820086000BFFEF72BFD0D481F
:1052400000687E21B0FBF1F201FB12000A490870F0
:10525000084601780320FCF7DBFE012007490870AF
:10526000FFF7FCFE0128E8D000200449087010BDBB
:10527000100C014038000020900000208900002020
:1052800010B513480088401C114908800846008862
:1052900001280ED10F48C078401DC1B20D48FCF75F
:1052A000F9F80D480078401C0B49087001200B49A3
:1052B000087007480088B0F5FA7F05DB0120044933
:1052C00008800020054908700448007810BD0000DF
:1052D0008E000020100C00208C0000209100002087
:1052E00070B5002100230F22C47804B3154C246844
:1052F00004F4E064C4F5E064210AC1F10403CA4087
:10530000447804FA03F184781440214309010E4CD7
:105310000678A155047804F01F050124AC400578F7
:105320006D11AD0005F1E025C5F8004109E00478F4
:1053300004F01F050124AC40044D0678761145F8B1
:10534000264070BD0CED00E000E400E080E100E0EC
:1053500002490143024A1160704700000000FA054B
:105360000CED00E0704700005A4800685A4909688F
:10537000401A5A490988884200D270475548006847
:10538000554908605548807806287DD2DFE800F04E
:1053900026030E32435F4FF400705149086002202B
:1053A0000860000208600820086090E04C48001F78
:1053B000006880F002004A49091F0860084600683A
:1053C00080F4007008600846006880F008000860FB
:1053D0000846006880F48070086078E04FF4007040
:1053E0003F49091D086002200860C00108600820CC
:1053F00008606CE04FF40070394908600220091D14
:105400000860C001091F08600820091D086002200B
:10541000324988705BE03248001F006880F002006B
:105420002F49091F08600846006880F008000860DE
:105430000846006880F4007008600846006880F440
:10544000807008604FF44870244908803FE0254888
:105450000088401C23490880084600880B2801DD8D
:10546000002008801F480088082819DD1C48001FFC
:10547000006880F400701A49091F08600846006837
:1054800080F48070086000E01DE00846006880F04D
:10549000020008600846006880F0080008600EE01E
:1054A0001048008807280ADA4FF400700C49091DDB
:1054B000086002200860C00108600820086096208B
:1054C0000649088003E001200449887000BF00BF3E
:1054D00000BF52E72C000020800000207800002050
:1054E000100C01407E0000202DE9F04F8DB0814668
:1054F00092480078012802D09148407E48B90020A7
:105500008F498860C8608F49086448640DB0BDE861
:10551000F08F8C4A91688A4A9068FAF779FE099070
:10552000FBF751F80746884A884BFAF78EFF054685
:105530000E4684498868FBF746F82A463346CDE98B
:105540000A01FAF7DBFE8246FBF780F87D498860A6
:105550000A46D1687A4AD068FAF75AFE0990FBF7F2
:1055600032F8794A794BCDE90A01FAF76EFF054620
:105570000E467449C868FBF726F807462A463346A4
:10558000FAF7BCFE8246FBF761F86E49C86008690D
:10559000FBF719F805460E466D48406880F0004B51
:1055A0006C495846FAF73AFE8246FBF70CF8CDE90B
:1055B000000102F0EDFD07460022674BFAF745FFB8
:1055C0002A463346CDE90201FAF739FF5E4A5F4BBE
:1055D000CDE90401FAF739FFCDE908015949086915
:1055E000FAF7F1FFCDE90601DDE90823FAF786FEB7
:1055F000CDE90A01FBF72AF8524908614869FAF730
:10560000E2FF074688465248006880F00040514952
:105610000090FAF703FE0190FAF7D5FF054602F075
:10562000B7FD00224C4BCDE90201FAF70EFF82468E
:105630003A464346FAF703FF434A444BCDE9040197
:10564000FAF703FFCDE908013E494869FAF7BBFFC5
:10565000CDE90601DDE90823FAF750FECDE90A019C
:10566000FAF7F4FF374948610A4611699068FAF77A
:10567000CFFD344908620A465169D068FAF7C8FD7F
:10568000304948620A46916A106AFAF7C1FD054638
:105690004946FAF7F5FD2B4988630846006A886297
:1056A0000A46D16A506AFAF7B3FD05464946FAF749
:1056B000E7FD2449C8630846406AC8620A46116C7F
:1056C000906BFAF7A5FD06462449FAF7A7FD0546B3
:1056D0001C48016C2846FAF749FD1A4908640A4635
:1056E000516CD06BFAF794FD06461C49FAF796FD0B
:1056F00005461448416C2846FAF738FD11494864BC
:10570000174C0846C465086A2146FAF787FD0D491B
:105710008864486A2146FAF781FD0A49C864086C22
:105720002146FAF77BFD07490865486C2146FAF7E0
:1057300075FD0449486500BFE8E60000F000002060
:10574000A40D0020C80D00209A9999999999C93FF4
:1057500024030020728A8E3C00C08240CDCCCC3D18
:10576000AE4FDA3D2DE9F05F04464FF07F594FF020
:105770007C512046FAF752FD824625462E460C48BB
:10578000A0EB6606354629465046FAF747FD8346A4
:105790002946FAF743FD80464946FAF73CFD07469D
:1057A0002946FAF73BFD05462846BDE8F09F000074
:1057B000DF59375F01460020034A506820F440401B
:1057C00008435060704700000010024029B1064AAB
:1057D00052690243044B5A6104E0034A526982430E
:1057E000014B5A61704700000010024029B1064A7F
:1057F000D2690243044BDA6104E0034AD26982436E
:10580000014BDA61704700000010024029B1064ADE
:1058100092690243044B9A6104E0034A926982430D
:10582000014B9A61704700000010024030B5002122
:105830000022002400232D4D6D6805F00C0121B1DC
:10584000042905D0082923D105E0294D056022E06F
:10585000274D05601FE0254D6D6805F47012234D3E
:105860006D6805F48034022505EB92421CB9214D88
:10587000554305600BE01D4D6D6805F400351DB105
:105880001C4D5543056002E0194D5543056002E08B
:10589000174D056000BF00BF144D6D6805F0F001A5
:1058A0000909154D6B5C0568DD4045600F4D6D685D
:1058B00005F4E061090A104D6B5C4568DD408560C8
:1058C0000A4D6D6805F46051C90A0B4D6B5C456863
:1058D000DD40C560054D6D6805F44041890B074DFD
:1058E0006B5CC568B5FBF3F5056130BD0010024087
:1058F00000127A0000093D003F0000204F00002008
:105900001448007828BB14480088401C12490880BD
:1059100001201249087010480088B0F5FA7F18DDA0
:1059200040F2DC500E4908804880C88001200D49B3
:1059300008700846007A20F00100401C0872002020
:105940000949887040F2DC500549888001200149EE
:1059500008707047C0010020C60100202801002007
:1059600030030020480300207800002010B5FFF726
:1059700087FC08B900F006FF10BD21B1028842F093
:105980004002028004E002884FF6BF731A40028092
:105990007047000000B587B001218803FFF726FF9C
:1059A00001210920FFF732FF4FF480511C48FDF719
:1059B000B3FD4FF46040ADF8040003208DF80600FD
:1059C00018208DF8070001A91548FDF7D1FC00212A
:1059D0001448FFF7D2FF0020ADF808004FF48270A2
:1059E000ADF80A000020ADF80C00ADF80E00ADF8DF
:1059F00010004FF40070ADF812001020ADF8140044
:105A00000020ADF816000720ADF8180002A90548DF
:105A100000F018F801210348FFF7AFFF07B000BD01
:105A2000000C0140003800400246002013890B4062
:105A30000BB1012000E000207047014688897047C3
:105A40008181704710B50022028802F441520B8810
:105A50004C8823438C882343CC8823430C892343DD
:105A60004C8923438C892343CC8923431A430280E6
:105A7000838B4FF2FF74234083830B8A038210BD14
:105A800010B5044600BF02210A48FFF7CDFF0028E9
:105A9000F9D021460748FFF7D3FF00BF0121054891
:105AA000FFF7C2FF0028F9D00248FFF7C6FFC0B2D7
:105AB00010BD000000380040704710B500F002F83B
:105AC00010BD00000CB50020019000903348006824
:105AD00040F480303149086000BF3048006800F46D
